:400000000010002011000000B5030000B503000008B500F097FA00F0CFF90000F7B572B680220021D200554801F035F8802200215348D20001F02FF80023191C514C185947
:400040001034C2B20192071CFF2297434A00A4180022019ED5B2AE4209D05500665D6519B446BC446D78664635700132F1E7C0B204330918102BE1D1434BC02292041A60F8
:40008000424B99221A60424A00231360414A80211160414AC9031160404A40211160404AC021490311603F4A312113603E4B02221A603E4B802019603D4B3E491A60992317
:4000C0001B040B603C49000608603C490C200B603B4B8021890519603A493B4B19603B4B19780A431A703A4A117881430420014311701A7816210A431A70364A80231168D3
:40010000DB020B431360344B141C1878334BC0B21978334BC9B21A78172A05D9314A58789978033B9342F6D12F4B192218602F4B052019602E4B1A6000F0A6FD2D4B052019
:400140001A782D4BD2B21A6000F0E6FE22682B4B134023602A4A2B4B1A602B4B10221A602A4B20221A602A4B802212061A60294A294B1A60294A2A4B1A60F7BD00300F4077
:4001800000400F40B410000004000140100001400C000140000004400800044000010440080104400803044000040440080404401804044000500F4004500F4010500F40AF
:4001C00018500F40100001002001054000700F4001700F4000010B40CCF1FF0FCDF1FF0FC9F1FF0FBDF1FF0F1CFF0B4020FF0B402CFF0B40E5F1FF0F28FF0B40FFFFFBFF57
:400200000600008004010B40080202402002024008010B401000008000000240AF0400804000024010B5064C2378002B07D1054B002B02D0044800E000BF0123237010BDEC
:40024000F000002000000000B010000008B5084B002B03D00748084900E000BF07480368002B03D0064B002B00D0984708BDC04600000000B0100000F4000020D0000020EF
:400280000000000010B562B600F0F4FC00280ED16524012000F02AFE00F0ECFC002806D1013CE4B2002CF4D1034B40221A6000F0D3FC00F023FBFEE7C000002008B500F0B4
:4002C0005DFB00F095FB00F0FDFB08BD70B5054B0D1C161C0024C9B21C8000F0E7FB3580201C70BD0C010020F0B50A275F4387B003900591151C00262D4CBE4219DA00F0C6
:4003000065FB80B220802388002B0CD00220268800F0ECFD00F05AFB80B220802388B6B2B342F3D807E00120013600F0DFFDB6B2E2E7052600E0002600272F802388002B2D
:4003400033D023889BB2019301992B885A18059992B22A808A4221D2019ABB189BB2029302998F4209D07B1C9BB20493039BDF1900F012FB3870049FF2E772B62388019AAF
:400380009B1A9BB2238062B6039A5318013B1B78172B08D0052000F0A9FD04E02B8000F027FB052601E0029FC8E7301C07B0F0BD0C010020FEE7000070B51048104B013804
:4003C000421C15D01E685C689D680022A118AA4203D0B158A1500432F8E7DA680D1C4C1B944202D0002410C1F9E710330138E7E700F022FEFFF746FFFEE7C04601000000F2
:400400000411000008B500239A00032B02D80D49895800E00C490D4801338150302BF3D1FFF7FCFD0A4B00221A600A4B1A68002A00D11A608023DB051A6801210A431A6026
:4004400008BDC04600000000B503000000000020C8000020C0000020004770B5051C0E1C141C002802D0002000F032FD0020002C05D0013CAA19125D8318D8B2F7E770BD31
:4004800070B57F23051C9D43A0B0C20900235C5D6E469C550133802BF9D17F231840315490B2694600F004FC20B070BD013808B509282AD8C901494200F0AAFD0507090B9D
:4004C0000D0F1614181B154B08E0154B12E0154B0DE0154B0EE0154B00E0154BC9180878C0B21AE0134B02E0134B00E0134BC9180FE0134BC9180B7848788A780002120499
:4005000010431843CB781B0606E0002000F0E0FC00210B7848780002184308BDC07F0000C17F0000C57F0000C97F0000D07F0000D17F0000D67F0000D27F0000D47F0000AE
:40054000D87F00000C4B10B51A6810231A400B4B00D11A601A68802A0DD100240220211C1C60FFF7A3FFA04205D0211C0220FFF79DFFFFF771FF10BD00030B40C0000020AE
:40058000F8B5041C211C0320FFF790FF211C071C0420FFF78BFF211C061C0620FFF786FF0025012828D00320211CFFF77FFF01370130FF01BF19C0012E1CB84209D20378CF
:4005C0005A1ED2B2FD2A00D801265D19EDB20130F3E70120211CFFF769FF6D42EBB20625834209D1002E07D0044BE0014042C0180121FFF745FF0025281CF8BDD17F00008E
:40060000F0B5B64CA544FFF759FE62B600260596002428AF07AD9621381C49002A1CFF23FFF762FE01900028F3D12D880295062D00D84FE13A780423012A3CD1FD78BA7887
:400640002D0215437A1911795079039102998446E81D884200D93FE19279172A2BD1EB1801989BB2002B09D0BEA9CA189C49013B521812789BB2801880B2F3E7624613020B
:400680004042039A80B21A430823824213D144E0012E00D01EE16019962303905B00984200D919E173A908192A1C29A900F0EAFC039DACB200230021012038706846A13015
:4006C00003706B46A2336A4600201E32197058700B1D11809BB2BEADED18AC46804D013BAC4465462D789BB2AC46604480B2002BF1D1BEAD6B1840427A4D80B2E8547A4D71
:40070000000AE854794807311B181720187089B2381C9623FFF7DAFD7BE729A90978A12203916A441378181C31380A2801D90523C1E700F077FC0B001900FCFF370080007C
:40074000FCFFADFF830037009100BB00012E00D0C0E0002D00D0BDE0281CFFF711FF4342434129A803709EE0012E00D0B2E0012D00D0AFE0039D002D00D0ABE05C4B1B680E
:400780001B68DA0BD2B2DB09DBB2002A01D080235B003B711B0A7B71FF23BB710023FB71042189E7342B0CD1012E00D092E0032D00D08FE073A80021802200F06CFC8024BE
:4007C00005E0012E00D085E0022D00D882E073AE301969466419EA1EA731A4B200F052FC832C6ED1BA797B79039D12021A432B02D6183F4BB6B21B681A68D3099BB2500686
:4008000001D001339BB29E425ED3059D002D0AD1291C802208A800F03EFC0125FF2008A900F046FA0595301C73A900F041FA012600284DD049E0012E4CD1E9E6002D49D1A0
:4008400008AB2C4A191C41CA41C129AA41CB41C2082101262B1C2FE7012E3BD1032D39D1BB79039D1A027B79290213435918C901002080220493FFF7F0FD051C0398002849
:400880000ED10499FF290BD103990520FFF70EFE03992D1A0620FFF709FEEDB22D1AEDB26D4228AB1D710023012105E70020FFF767FE002802D1104B80221A6000F00AFB47
:4008C00008E00126002407E0012600240A23F2E6041CEFE60423EEE60323ECE604FDFFFFA7FDFFFFACFDFFFFADFDFFFFAEFDFFFFD4000020D8100000C000002038B5002044
:40090000FFF73EFE0025A84200D00625124C00202368C0211A68C03AFFF79FFD62681378181AC0B2984203D123681B68002B02D1002000F0CDFA094B19681A1C402901D0B4
:40094000002D03D000231360FFF75AFE80221A6000F0C0FA38BDC046D4000020C000002008B5054B8022196812060A431A600A2000F09AFA08BDC0460000064010B5054C1A
:400980002378002B03D100F0BFF801232370FFF7E7FF10BD10010020094B0A4A1968136899420BD011684B1C4039481E814149420B400549C85C1360C0B200E000207047A6
:4009C000B0010020280100206C010020064B074A1B6811688B4202D31068181A02E012684133981A7047C046B0010020280100200C4A0D4B002130B5106811601D68802447
:400A000064022C431C601D68084C2C401C60084B1C68084B1C60084B19700849084B1960106030BDC80F064004030640FFFFFEFF28010020B0010020AD010020ED0F00005F
:400A4000C00F0640124910B50A68531C3F3A541EA241524213400F4A1468A342FBD00C681268944208D10C4A14680F222240082A02D00A4B18600AE0094C02222260094C19
:400A8000C0B2E0540B60084B19680A431A6010BD24010020200100200802064040020640800F06402C010020880F064038B5041C4518AC4204D02078FFF7C4FF0134F8E7CF
:400AC00038BD00000B4A0023116810B513600A4B80201C684002204318601C68074820401860074B1868074B186002239943116010BDC046880F064004020640FFFFFEFF92
:400B000020010020240100201D4A1E4B10B51A601D4B00241C601D4B01221A601C491D4B07200B601C4908601C490A200C601C490A601C4A13601C4B1C6000F0BFF90A208F
:400B4000032100F091F919490A2000F081F9184B04221C60174B1C60174B1C60174B1C60174B1A60174B1C60174B1C60174B1C60174B1C70174B1C60174B1C6010BDC0464F
:400B80000B000002000006404000064048000640000306400700008004030640100306404400064000020640040206402D0F0000880E0640C80E0640480F0640080F06400C
:400BC000C80F0640880F0640B001002028010020AD01002024010020200100200E4B8422D2041A601968802252020A431A600B490B4A0A60196819600A4BC32189001960B8
:400C0000094B00211960094B1C211960084B1A60084A094B1A607047000105400801054050C3000024010540380105402801054014010540C40900000C01054008B500F0F5
:400C40002DF8044B01211A680A431A6000F02AF808BDC0460000054010B5054C2378002B03D1FFF7BBFF01232370FFF7E7FF10BD18010020024B18680006C00F7047C0461B
:400C800004000440000000000230800804D0C0460138FDD1C046C046C0467047EFF3108072B6704780F310887047C046C046C046F0B50024CBB0069404900794FF2800D956
:400CC000A4E0A14200D1A1E008AD8022281C00F0D9F9231C211C221C029498002858002802D01218014302930133202BF5D1002A05D1002900D08EE00191039102E00020A5
:400D000001900390484F7F2328AE291C80222AA82897464C736000F0B5F9454A454B266013602168090F0A2903D022680F23134000E000230693069F002F69D1FFF7AEFFEA
:400D40003D4A3E4B116807971960069B0590002B14D13B4A04982892289A01040A43289228AA22603249374A0A602268120F0A2A03D02E4B1A680F2313400693069F002F8B
:400D800038D1019A002A35D0391C8022281C00F082F90298039A08A983005A50224B2AA8289380227F23736000F06CF9214820492660086023681B0F0A2B03D01B4B1F68D5
:400DC0000F231F400697069B002B13D11E4A04982892289A01040A43289215491B4A26600A602268120F0A2A03D0104B1A680F2313400693079B002B04D1104A0E4812685D
:400E0000026007930598FFF74DFF01E00423069306984BB0F0BD02998B00E85801210390EA5001916EE7C046B6D7000008000040040000400400008008010B401C01002080
:400E4000B6D8000005000080B6D90000060000801F2800D901BE034A80008318186819607047C0464000002038B5041C0D1E032D00D901BE1F2C00D901BEFFF70FFFA3085B
:400E8000084A9B009B1803221440944019680634A2409143A5400C1C2C431C60FFF702FF38BDC04600E400E01F23184001238340181C014B1860704700E100E01F2318409B
:400EC00001238340181C014B1860704780E100E001BE7047034B04491A6892B20A431A607047C0460CED00E00400FA0510B5041C8022074B1202944205D91868FFF7C4FE0B
:400F0000044BE418F4E758686043FFF7BDFE10BDDC0000200080FFFF08B5034B1B7A5843FFF7B2FE08BDC046DC000020274B10B51B68002B00D09847254B1B685A071DD5AE
:400F4000244B1B681A0716D0234B244A186811684B1C40394C1EA14149420B40204909688B4203D11F4B20221A70E9E71E49C0B2C8541360E4E71D4B04221A601C4B1B68FB
:400F80009A0721D51B4B1A680F231340082B18D0194B1A4A1968136899420DD011684B1C3F39481E814149420B401549C85C1549C0B208601360E5E7134B02211A688A4377
:400FC0001A60124B02221A6010BDC04614010020CC0F06400803064040030640B001002028010020AD0100206C010020C00F06408C0F064008020640240100202001002038
:401000002C01002040020640880F0640800F064002B4714649084900095C49008E4402BC7047C04603B47146490840004900095E49008E4403BC704770B50E4B0E4D0024EA
:40104000ED1AAD101E1CAC4204D0A300F35898470134F8E700F044F8084B094D0024ED1AAD101E1CAC4204D0A300F35898470134F8E770BDEC100000EC100000EC10000014
:40108000F410000010B50023934203D0CC5CC4540133F9E710BD031C8218934202D019700133FAE770470000381100008D0000000000000001330F4003410F4004430F4044
:4010C00002600F40E61062048E04D84018808C40C608E6080201110193111604111E0101F8B5C046F8BC08BC9E4670474D02000005040000F8B5C046F8BC08BC9E46704731
:401100002502000018110000D000002020000000C80000000000000000000000A8100000AC1000000000E02EC05D00001800000000366E010000000000000000000000002B
:40114000000000000000000000000000000000000000000000000000000000000000000000000000000000000000000000000000000000000000000000000000000000006F
:4011800000100020911100002D1700002D17000080B500AF024B83F3088800F0CBFAC0460010002080B584B000AF021CFB1D1A70204A3B1C0B3312781A701F4A3B1C0A33CB
:4011C00012781A700423013BFB6018E01B4B1868391C0B31FA68131C5B009B18C3185B780B70164B1868391C0A31FA68131C5B009B18C3189B780B70FB68013BFB60FB6810
:40120000002B0ADB0D4B1968FA68131C5B009B185B5CFA1D12789A42D8D9094B3A1C0B3212781A60074B3A1C0A3212781A60BD4604B080BDCCF1FF0FCDF1FF0FE4000020DF
:401240001CFF0B4020FF0B4080B500AF1F4B1F4A12688021C9020A431A601820FFF7A2FF1B4B19221A60052000F08EFC194B1A4A1278D2B21A60052000F0AEFE134B134AE5
:401280001168164A0A401A60154B164A1A60164B10221A60154B30221A60154B20221A60144B20221A60144B20221A60134B802212061A60124B134A1A60134B134A1A60D1
:4012C000134B144A1A60BD4680BDC04600010B402CFF0B4028FF0B40E5F1FF0FFFFFFBFF04010B4006000080080202400C02024020020240240202402802024008010B4064
:4013000000000240100000804000024017000080800002402200008080B582B000AF72B6FB1D00221A7023E0FB1D1A78131C5B009B185B00444A9B183B603B681A78597835
:4013400009020A43997809040A43DB781B0613431A1C3B6819795B791B020B439BB2101C191C00F06DFAFB1D1A78FB1D01321A70FB1D1B78012BD7D9344A354B101C191CCC
:4013800000F06EFA334B344A1A60344B99221A60334B80221A60334B8022D2031A60324B324A1A60324B802252011A60314B02221A60314B314A1A60314B02221A60314B22
:4013C00002221A60304B31221A60304B02221A602F4B992212041A602E4B802212061A602D4B992212041A602C4B2D4A1A602D4B802292041A602C4B992212041A602B4BEF
:4014000019221A602A4B2A4A1278D2B202210A43D2B21A70274B274A1278D2B20C218A43D2B204210A43D2B21A70214B204A1278D2B216210A43D2B21A70FFF705FF00F033
:401440004FFABD4602B080BDC4320000D0320000DC3200000C00014099EE000010000140000004400800044008010440360C1800080204400003044008030440B10D00002D
:401480001803044000040440080404401804044000500F4004500F4010500F4020500F400400990024500F4030500F40A001054000700F4001700F4010B5064C2378002BB4
:4014C00007D1054B002B02D0044800E000BF0123237010BDF800002000000000B832000008B5084B002B03D00748084900E000BF07480368002B03D0064B002B00D0984726
:4015000008BDC04600000000B8320000FC000020D00000200000000090B583B000AFBB1D00221A7062B601F039F801F069FB01F0F7F900F0FBF900F09BFA00F061FD01F027
:401540005FFA01F0C1FB01F08DF8FB1D00221A700CE0FB1D1B78FA1D12786749895C674AD154FB1D1A78FB1D01321A70FB1D1B78032BEED9624B1A88FA23DB009A4201D96C
:4015800000F0B2F900F0DEFA021C7B1D1A707B1D1B78002B1AD0FB1D00221A700AE0FB1D1B78564A791D0978D154FB1D1A78FB1D01321A70FB1D1B78032BF0D94F4A4E4BC0
:4015C000101C191C042201F029FCD3E7FB1D00221A7039E0FB1D1A784A4B5200D35A1AB2494B9A4205DCFB1D1B78484A0021D15425E0FB1D1A78434B5200D35A1AB2FA23B4
:40160000DB009A4205DDFB1D1B78404AFF21D15415E0FB1D1C78FB1D1A783A4B5200D35A1BB23B495A18131C1B029B1A181CFA23990001F0A7FD031CDAB2344B1A55FB1D54
:401640001A78FB1D01321A70FB1D1B78072BC1D9304B1A88FA239B009A4237D9274A264B101C191C042201F0D9FBBB1D1B785A1C294B134004D5013B04225242134301339C
:401680001A1CBB1D1A70FB1D00221A7009E0FB1D1B78224A0021D154FB1D1A78FB1D01321A70FB1D1B78032BF1D91D4B01221A70BB1D1B78BA1D12781049895C174AD154C1
:4016C000184B00221A80134B00221A80154B1A88154B9A4209D1124B1B78012B05D1104B00221A700F4B00221A80BB1D1B78074A1178024AD1543DE7BC320000D8000020CA
:401700006201002044010020E70300001801002018FCFFFF6001002003000080D4000020140100205E010020DC05000080B500AFFEE7C04680B586B000AF224B7B61224B60
:401740003B61204B7B6135E03B691B68FB603B695B68BB603B699B683B6000237B600CE0FB681A68BB681A60BB680433BB60FB680433FB607B6804337B607A683B689A42FF
:40178000EED13B69DB683B6000237B6008E0BB6800221A60BB680433BB607B6804337B607A683B689A42F2D13B6910333B617B69013B7B617B69002BC6D101F045FDFFF767
:4017C000ABFEFEE7010000005433000080B582B000AF00237B600FE07B68032B04D8134B7A689200D35800E0114B124A796889008B507B6801337B607B682F2BECD9FFF71F
:401800008BFD0D4B00221A600C4B1B68002B02D10A4B00221A608023DB058022D205126801210A431A60BD4602B080BD801100002D17000000000020C8000020C000002055
:4018400080B582B000AF786039607A683B68101C00211A1C01F027FDBD4602B080BDC04680B586B000AF7860396000233B6100237B612EE07B699B007A68D3181B68BB608B
:401880003B1C0F33BA681A70BB68FF229343BB6017E03B695B003A68D3181B781A1CBB68D3183A69520039688A1852781A703B6901333B613B1C0F331A783B1C0F33013A55
:4018C0001A703B1C0F331B78002BE2D17B6901337B617B69022BCDD9BD4606B080BDC04680B500AFBD4680BD80B500AF034B40221A6000F061FBBD4680BDC046C000002009
:4019000080B500AF00F028F8BD4680BD80B500AF054B054A1268802109060A431A6000F017F8BD4680BDC0460000074080B500AF064B1B78002B04D1FFF7E2FF034B012263
:401940001A70FFF7E3FFBD4680BDC0462001002080B500AFBD4680BD80B500AF174B184A1A60184B00221A60174B01221A60174B174A1A60174B07221A60174B00221A60FA
:40198000164B01221A60164B114A1A60154B00221A60154B00221A60144B00221A60144B00221A60134B00221A60134B04221A60124B00221A60BD4680BDC0460000074087
:4019C0000B000002400007404800074000030740070000800403074010030740440007400002074004020740880E0740C80E0740480F0740080F0740C80F0740880F074038
:401A000080B582B000AF00237B6001F0DFFA031C002B03D001F0CAFA031C7B60084B1A68D8239B00134005D000237B60044BD82292001A607B68181CBD4602B080BDC04607
:401A4000C00F074080B500AF00F028F8BD4680BD80B500AF054B054A1268802109060A431A6000F017F8BD4680BDC0460000064080B500AF064B1B78002B04D1FFF7E2FF7E
:401A8000034B01221A70FFF7E3FFBD4680BDC0462801002080B500AFBD4680BD80B500AF174B184A1A60184B00221A60174B01221A60174B174A1A60174B07221A60174BDC
:401AC00000221A60164B01221A60164B114A1A60154B00221A60154B00221A60144B00221A60144B00221A60134B00221A60134B00221A60124B00221A60BD4680BDC046F5
:401B0000000006400B000002400006404800064000030640070000800403064010030640440006400002064004020640880E0640C80E0640480F0640080F0640C80F06409B
:401B4000880F064080B582B000AF00237B6001F05DFA031C002B03D001F048FA031C7B60084B1A68D8239B00134005D000237B60044BD82292001A607B68181CBD4602B030
:401B800080BDC046C00F06400230800804D0C0460138FDD1C046C046C0467047EFF3108072B6704780F310887047C046C046C04690B5CFB000AF7860396000238A20400053
:401BC000C0190360002388214900C9190B60002390225200D219136000239A204000C0190360002398214900C9190B60002396225200D2191360002394204000C019036019
:401C00007B68FF2B00D993E13B68002B00D18FE13A1C08323B68101C191C802201F03AFB002392214900C9190B603FE0C74B9C225200D219D31892204000C0190268920095
:401C4000D3588E214900C9190B608E225200D2191368002B21D096235B00DB191A688E204000C0190368D31896214900C9190B6094235B00DB191A688E204000C0190368C2
:401C8000134394214900C9190B6092225200D21913689A204000C019036092214900C9190B68013392225200D219136092204000C01903681F2BB9D996214900C9190B6891
:401CC000002B07D194225200D2191368002B01D0012300E0002390204000C019036090214900C9190B68002B1AD0984B9C225200D219D3189A204000C01902689200D358FD
:401D000098214900C9190B60904B9C225200D219D3189A204000C019026892000021D1503B1C88338A4A1A603B1C88337F225A603A1C8832854B9C214900C919CB18111CDD
:401D400008311A1C8023081C111C1A1C01F0A2FA804B3A1C88321A607F4B804A1A607D4B1B681B0F1A07A0231B069A4204D0794B1A680F23134000E000238A225200D219F9
:401D800013608A204000C0190368002B00D0CEE01C21FF317C18FFF701FF031C237000F0E7F8031C88225200D21913608A204000C0190368002B25D13B1C8833684A1A605B
:401DC0003B1C88331A687B681B041A433B1C88331A60604B3A1C88321A605F4B614A1A605C4B1B681B0F1A07A0231B069A4204D0584B1A680F23134000E000238A214900B6
:401E0000C9190B608A225200D2191368002B00D078E090204000C0190368002B72D03B1C0833181C0021802201F03DFA474B9C214900C919CB189A204000C0190268920020
:401E400098204000C0190168D1503B1C8833404A1A603B1C88337F225A603A1C88323B4B9C214900C919CB18111C08311A1C8023081C111C1A1C01F00DFA364B3A1C8832D4
:401E80001A60354B354A1A60324B1B681B0F1A07A0231B069A4204D02E4B1A680F23134000E000238A225200D21913608A204000C0190368002B25D13B1C88332A4A1A6022
:401EC0003B1C88331A687B681B041A433B1C88331A60204B3A1C88321A601F4B234A1A601C4B1B681B0F1A07A0231B069A4204D0184B1A680F23134000E000238A214900F3
:401F0000C9190B6088225200D2191368002B06D100F040F8031C88204000C01903601C21FF317B181B78181CFFF73CFE05E004E004238A225200D21913608A204000C0197F
:401F40000368181CBD464FB090BDC046D0FEFFFFB6D70000080000400400004004000080B6D8000005000080B6D900000600008080B582B000AF00237B60044B1A68044BA8
:401F80001A607B68181CBD4602B080BD08010B403001002080B582B000AF00237B60044B044A12681A607B68181CBD4602B080BD08010B403001002080B500AF044B044A25
:401FC00012681204120C03490A431A60BD4680BD0CED00E00400FA0580B582B000AF021CBB1D1A80BB1D1B88044A12785343181CFFF7CAFDBD4602B080BDC046F00000207C
:4020000080B500AF00F082FA054B181C00F042FA032000F04BFA00F06FFABD4680BDC0462520000090B583B000AFFFF7E9FC031C3B6000F075FAD54BD54A1A60D54B1B68ED
:402040005A1CD44B1A603B68FE2B13D1D14B1A68D14B1A60D14B01221A70D14B00221A70D04B00221A70D04B00221A70CF4B00221A70F3E13B68012B19D1C84B1B785BB248
:40208000012B14D1C64B1B78002B10D1C24B1B68DA1CC04B1B689A4209D1C14B01221A70C04B00221A70C04B00221A70D6E13B68012B1BD1B94B1B785BB2012B16D1B84B42
:4020C0001B785BB2012B11D1B64B1B78002B0DD1B14B1B681A1DAF4B1B689A4206D1B14B01221A70B04B00221A70B7E13B68232B1DD1AA4B1B785BB2012B18D1A84B1B78B8
:402100005BB2012B13D1A74B1B785BB2012B0ED1A54B1B78002B0AD19F4B1B685A1D9D4B1B689A4203D1A04B01221A7096E19B4B1B785BB2012B00D090E1994B1B785BB2D7
:40214000012B00D08AE1974B1B785BB2012B00D084E1954B1B785BB2012B00D07EE18E4B1B681A1C0A328B4B1B689A4200DD75E18E4B1B78DBB20133DAB28C4B1A708B4B14
:402180001B785BB2102B00D968E19A00884BD3181B689F463B689AB2864B1A805EE1854B1B889AB23B689BB21B029BB213439BB29AB2804B1A80312000F038FF7D4B1B8879
:4021C0001BB21B129BB2DBB2181C00F02FFF794B1B88DBB2181C00F029FF3FE13B689AB2744B5A803AE1734B5B889AB23B689BB21B029BB213439BB29AB26E4B5A8032209B
:4022000000F014FF6B4B5B881BB21B129BB2DBB2181C00F00BFF674B5B88DBB2181C00F005FF1BE13B689AB2624B9A8016E1614B9B889AB23B689BB21B029BB213439BB2F5
:402240009AB25C4B9A80332000F0F0FE594B9B881BB21B129BB2DBB2181C00F0E7FE554B9B88DBB2181C00F0E1FEF7E03B689AB2504BDA80F2E04F4BDB889AB23B689BB263
:402280001B029BB213439BB29AB24A4BDA80342000F0CCFE474BDB881BB21B129BB2DBB2181C00F0C3FE434BDB88DBB2181C00F0BDFED3E03B689AB23E4B1A81CEE03D4BC1
:4022C0001B899AB23B689BB21B029BB213439BB29AB2384B1A81352000F0A8FE354B1B891BB21B129BB2DBB2181C00F09FFE314B1B89DBB2181C00F099FEAFE03B689AB2FD
:402300002C4B5A81AAE02B4B5B899AB23B689BB21B029BB213439BB29AB2264B5A81362000F084FE234B5B891BB21B129BB2DBB2181C00F07BFE1F4B5B89DBB2181C00F0FC
:4023400075FE8BE03B689AB21A4B9A8186E0194B9B899AB23B689BB21B029BB213439BB29AB2144B9A81372000F060FE114B9B891BB21B129BB2DBB2181C00F057FE0D4B49
:402380009B89DBB2181C00F051FE67E0C00F0740ED0F0000380100203C0100203401002035010020360100203701002040010020EC320000440100203B689AB22A4BDA81ED
:4023C0004CE0294BDB899AB23B689BB21B029BB213439BB29AB2244BDA81382000F026FE214BDB891BB21B129BB2DBB2181C00F01DFE1D4BDB89DBB2181C00F017FE1B4B33
:4024000000221A701A4B00221A701A4B00221A70194B00221A70194B00221A70184B00221A60FB1D00221A7013E0FB1D1C780E4BDB891BB2134A9B18181C052100F0A2FEC8
:40244000031CDAB2104B1A55FB1D1A78FB1D01321A70FB1D1B78032BE7D9C0460B4B0C4A1A60BD4603B090BD44010020340100203501002036010020370100204001002080
:40248000380100202CFCFFFFD8000020C00F0740ED0F000080B582B000AF7860024B7A68DA66BD4602B080BD0000002090B585B000AF021CFB1D1A701E23FB603C1C0B3408
:4024C000FFF76CFB031C23700A4B0A4A126892009108FA1D1078FA68041C9440221C0A431A603B1C0B331B78181CFFF75BFBBD4605B090BD08E400E080B500AF024B802239
:4025000012011A60BD4680BD00E100E080B500AF024B802212011A60BD4680BD80E100E080B500AF024B802212011A60BD4680BD80E200E080B500AF084B802292041A6061
:40254000074B0C221A60012000F074F80A2000F045F8002000F034F8BD4680BD000105402401054090B583B000AFFC1DFFF716FB031C2370084B084A126801210A431A6060
:40258000FB1D1B78181CFFF70DFB0120182100F033F8BD4603B090BD0000054080B500AF064B1B78002B04D1FFF7C4FF034B01221A70FFF7D7FFBD4680BDC046540100207E
:4025C00080B582B000AF7860034B7A681204120C1A60BD4602B080BD0801054080B582B000AF7860034B7A681204120C1A60BD4602B080BD1401054090B585B000AF7860B6
:4026000039603C1C0F34FFF7C9FA031C2370084B3A687968081C9040021C1A603B1C0F331B78181CFFF7BEFABD4605B090BDC0460800054080B582B000AF7860024B7A6816
:402640001A60BD4602B080BD3801054080B582B000AF7860024B7A681A60BD4602B080BD3001054080B500AF00F00EF9054B181C00F0CAF8032000F0D5F800F0FBF8BD469A
:4026800080BDC0468926000080B500AF00F006F9012000F00DFB514B1B78002B00D064E04F4BDA784F4BDA704D4B9A784D4B9A704D4B1B88002B05D14A4B00225A70494B61
:4026C00000221A70484B1A8896239B009A4203D1434B5A78434B5A70434B1B881A1C434B1B88962080001B189A4202D13D4B00225A703D4B1A88FF239B009A4203D1384BFF
:402700001A78384B1A70384B1B881A1C384B1B88FF2189005B189A4202D1324B00221A70314B1B881A1C324B1B888720C0001B189A4203D12A4B1A782A4B1A702A4B1B88A7
:402740001A1C2B4B1B88FF2080001918294B1B88C918274B1B88CB189A420FD1214B00221A70214B00221A8008E01F4B1A889623DB009A4202D11C4B00221A801E4B9B7878
:40278000002B0AD11C4B5B78FF2B06D11B4B1B8801339AB2194B1A8002E0184B00221A8000F0F6FB031C002B06D1154B1B8801339AB2134B1A8002E0114B00221A800A4B84
:4027C0001B8801339AB2084B1A800E4B1B8801339AB20C4B1A80BD4680BDC04614010020D8000020D40000205C010020E0000020DC000020DE0000201801002060010020C4
:40280000620100205E01002080B582B000AF7860034A84237968D150BD4602B080BDC0460000002090B585B000AF021CFB1D1A700E23FB603C1C0B34FFF7B0F9031C23703D
:402840000A4B0A4A11680A4A1140FA1D1078FA68041C9440221C0A431A603B1C0B331B78181CFFF79FF9BD4605B090BD10E400E0FF3FFFFF80B500AF024B802292021A60B7
:40288000BD4680BD00E100E080B500AF024B802292021A60BD4680BD80E100E080B500AF024B802292021A60BD4680BD80E200E080B500AF094B802292041A60084B0D22E6
:4028C0001A60022000F084F8064B181C00F054F8002000F037F8BD4680BDC04680010540A4010540FFFF000090B583B000AFFC1DFFF754F9031C2370084B084A1268042163
:402900000A431A60FB1D1B78181CFFF74BF90420182100F03FF8BD4603B090BD0000054080B500AF064B1B78002B04D1FFF7C0FF034B01221A70FFF7D7FFBD4680BDC04661
:402940006401002080B582B000AF7860034B7A681204120C1A60BD4602B080BD8801054080B500AF034B1B681B041B0C181CBD4680BDC0468801054080B582B000AF786015
:40298000034B7A681204120C1A60BD4602B080BD9401054090B585B000AF786039603C1C0F34FFF7FBF8031C2370084B3A687968081C9040021C1A603B1C0F331B78181CDB
:4029C000FFF7F0F8BD4605B090BDC0460800054080B582B000AF7860024B7A681A60BD4602B080BDB801054080B582B000AF7860024B7A681A60BD4602B080BDB00105409B
:402A000080B500AF00F0B2F8054B181C00F06EF8032000F079F800F09FF8BD4680BDC046252A000080B500AF00F0AAF80120FFF70DFE2C4B1B78002B06D12B4BDB78002B06
:402A400002D0FF2000F008FB264B1B78002B06D1254B9B78002B02D0FF2000F021FB214B1B78002B06D1204B1B78002B02D0FF2000F03CFB1B4B1B78002B06D11A4B5B784C
:402A8000002B02D0FF2000F057FB174BDA78154B1B789A4202D1002000F0DEFA124B9A78104B1B789A4202D1002000F0F9FA0E4B1A780C4B1B789A4202D1002000F016FBC6
:402AC000094B5A78074B1B789A4202D1002000F033FB044B1B780133DAB2024B1A70BD4680BDC04665010020D400002080B582B000AF7860034A80237968D150BD4602B010
:402B000080BDC0460000002090B585B000AF021CFB1D1A700623FB603C1C0B34FFF73EF8031C23700B4B0B4A1268C021101C8843011CFA1D1078FA68041C9440221C0A43B6
:402B40001A603B1C0B331B78181CFFF72BF8BD4605B090BD10E400E080B500AF024B802252021A60BD4680BD00E100E080B500AF024B802252021A60BD4680BD80E100E0C9
:402B800080B500AF024B802252021A60BD4680BD80E200E080B500AF094B802292041A60084B0C221A60012000F076F8FA239B00181C00F045F8002000F034F8BD4680BDF9
:402BC000400105406401054090B583B000AFFC1DFEF7E4FF031C2370084B084A126802210A431A60FB1D1B78181CFEF7DBFF0220182100F033F8BD4603B090BD0000054066
:402C000080B500AF064B1B78002B04D1FFF7C2FF034B01221A70FFF7D7FFBD4680BDC0466601002080B582B000AF7860034B7A681204120C1A60BD4602B080BD4801054035
:402C400080B582B000AF7860034B7A681204120C1A60BD4602B080BD5401054090B585B000AF786039603C1C0F34FEF797FF031C2370084B3A687968081C9040021C1A6028
:402C80003B1C0F331B78181CFEF78CFFBD4605B090BDC0460800054080B582B000AF7860024B7A681A60BD4602B080BD7801054080B582B000AF7860024B7A681A60BD46FB
:402CC00002B080BD7001054080B500AF00F092F8054B181C00F04EF8032000F059F800F07FF8BD4680BDC046ED2C000080B582B000AF00F089F80220FFF776FEFFF730FEB6
:402D0000031C7B600020FFF71DFE7A68FA231B019A4206DD144B00221A70144B01221A701EE07A68E1239B009A4216DD0F4B1B78012B12D10C4B1B78072B0ED80A4B1B7843
:402D40001A1C7B6899B20A4B5200D152064B1B780133DAB2044B1A7002E0044B00221A70BD4602B080BDC04667010020680100204401002080B582B000AF7860034A882377
:402D80007968D150BD4602B080BDC0460000002090B585B000AF021CFB1D1A701623FB603C1C0B34FEF7FAFE031C23700A4B0A4A11680A4A1140FA1D1078FA68041C94408A
:402DC000221C0A431A603B1C0B331B78181CFEF7E9FEBD4605B090BD10E400E0FFFF3FFF80B500AF024B8022D2021A60BD4680BD00E100E080B500AF024B8022D2021A603E
:402E0000BD4680BD80E100E080B500AF024B8022D2021A60BD4680BD80E200E080B5ACB000AFF860B9607A60BB689820C0190360BA687B68D218554B9A4200D98BE0982164
:402E4000C9190B68DB0B9422D21913609820C0190368DA09FF231340AC21C9190B609422D21913681A02AC20C0190368D318DB019C21C9190B600023A422D2191360002312
:402E8000A020C01903605AE00023A821C9190B603CE09C23DB191A689820C01903689A421AD3A421C9190A687B689A4214D2FA68A420C0190368D3181A78391C1431A82086
:402EC000C0190368CB181A70A421C9190B680133A422D21913600BE09C20C01903681B78DAB2391C1431A820C0190368CB181A709C21C9190B6801339C22D2191360A82068
:402F0000C01903680133A821C9190B60A822D21913687F2BBDD9AC23DB191A683B1C1433101C191CFEF744FE031CA020C0190360AC21C9190B680133AC22D2191360A423B4
:402F4000DB191A687B689A4209D2A020C0190368002B99D003E00123A021C9190B60A022D2191368002B09D0A020C0190368012B04D001235B42A021C9190B60A022D219E8
:402F80001368181CBD462CB080BDC046FF7F000080B500AF044B1A6880231340DB09DBB2181CBD4680BDC0460400044080B582B000AF00237B60044B1B687B607B68181C0C
:402FC000BD4602B080BDC0464003074080B582B000AF054B1A680F2313407B607B68181CBD4602B080BDC0460803074080B582B000AF00237B60044B1B687B607B68181CCE
:40300000BD4602B080BDC0464003064080B582B000AF054B1A680F2313407B607B68181CBD4602B080BDC0460803064080B582B000AF7860C046064B1A680F231340082BE8
:40304000F9D0044B7A681A60BD4602B080BDC046080206404002064080B584B000AF021CFB1D1A700D4B1B68DAB23B1C0F3301218A431A70FB1D1A7801231340D9B23B1CB8
:403080000F333A1C0F3212780A431A70034B3A1C0F3212781A60BD4604B080BD0001044080B584B000AF021CFB1D1A700E4B1B68DAB23B1C0F3302218A431A70FB1D1B78B6
:4030C000DB18DAB202231340D9B23B1C0F333A1C0F3212780A431A70034B3A1C0F3212781A60BD4604B080BD0001044080B584B000AF021CFB1D1A700E4B1B68DAB23B1C04
:403100000F3340218A431A70FB1D1B789B01DAB240231340D9B23B1C0F333A1C0F3212780A431A70034B3A1C0F3212781A60BD4604B080BD0001044080B584B000AF021C98
:40314000FB1D1A700E4B1B68DAB23B1C0F3308218A431A70FB1D1B78DB00DAB208231340D9B23B1C0F333A1C0F3212780A431A70034B3A1C0F3212781A60BD4604B080BDA3
:4031800000010440002941D010B4041C4C40A44601230022002900D54942002800D5404288422CD301242407A14204D2814202D209011B01F8E7E400A14204D2814202D246
:4031C00049005B00F8E7884201D3401A1A434C08A04202D3001B5C0822438C08A04202D3001B9C082243CC08A04202D3001BDC082243002803D01B0901D00909E3E7101CB2
:403200006446002C00D5404210BC7047002806D003DB0020C043400801E08020000607B4024802A14018029003BDC046190000000029EBD003B5FFF7A7FF0EBC4243891A75
:403240001847C0467047C04670B50E4B0E4D0024ED1AAD101E1CAC4204D0A300F35898470134F8E700F064F8084B094D0024ED1AAD101E1CAC4204D0A300F35898470134B3
:40328000F8E770BD3C3300003C3300003C3300004433000010B50023934203D0CC5CC4540133F9E710BD031C8218934202D019700133FAE770470000000000001010101098
:4032C0000400000000300F40000400400F40000402420F4003430F4002600F400802C2087C029802DE010201110100005C240000942100009E210000DC210000E621000003
:40330000242200002E2200006C22000076220000B4220000BE220000FC22000006230000442300004E230000B8230000C2230000F8B5C046F8BC08BC9E467047E114000081
:40334000CD170000F8B5C046F8BC08BC9E467047B914000068330000D00000202800000078000000000000000000000010101010101010103C003C003C000000C0F1FF0FB8
:4033800000366E01C05D0000180000000000E02E00000000000000000000000000000000000000000000000000000000000000000000000000000000000000000000000025
:4033C00000000000000000000000000000000000000000000000000000000000000000000000000000000000000000000000000000000000000000000000000000000000CD
:40340000000000000000000000000000000000000000000000000000000000000000000000000000000000000000000000000000000000000000000000000000000000008C
:40344000000000000000000000000000000000000000000000000000000000000000000000000000000000000000000000000000000000000000000000000000000000004C
:40348000000000000000000000000000000000000000000000000000000000000000000000000000000000000000000000000000000000000000000000000000000000000C
:407FC000F391110000220000008022000000000000000100000000000000000000000000000000000000000000000000000000000000000000000000000000000000000027
:0200000490303A
:02000000EC9181
:0200000490402A
:20000000FFFFFFFF00000000000000000000000000000000000000000000000000000000E4
:0200000490501A
:0C00000000020416119311000426FE24D7
:0200000490600A
:0100000001FE
:00000001FF