:400000000010002011000000810300008103000008B500F005FC00F0B5F90000F8B572B680220021D2004D4800F09DFF8023DA004B48002100F097FF0022101C4949FF25E5
:4000400054584700261CAE431031E3B2351CC919002B07D00F78013B7E194F78DBB237700231F5E7E4B204320019102AE6D1C0223D4D9104296080203C4F3D4C3D4A3E4DC5
:40008000C10399263E6023603C4F1060C02429603B4A3C49600340263E6010603A4F0B603A4B022531263A4C1D6099203E6039498023394F256002041E06384C0A60802018
:4000C0003E603749374E384B2260384F82050A601E603C78062025433D703D78344A05433D7011688026F3020B43324F324C13603878324E2178171C3578172D05D9304A32
:400100007078B178033E9642F6D12E4B2E4C2F4E1925186021600520356000F031FD2C482C4A01780520116000F060FE3C682A4B2A4D23402A483B60202610272F6080215B
:400140000660284F284D294E294A2A4B2A480C0614601C602F600660F8BDC04600300F4000400F40840F000004000140100001400C00014000000440080004400001044051
:40018000080104400803044008040440000404401804044000500F4004500F4010500F4018500F40100001002001054000700F4000010B40CCF1FF0FCDF1FF0FC9F1FF0F22
:4001C000BDF1FF0F1CFF0B4020FF0B402CFF0B40E5F1FF0F28FF0B40FFFFFBFF08020240200202401000008000000240AF04008008010B4004010B404000024010B5064CBD
:400200002378002B07D10548002802D0044800E000BF0121217010BDF000002000000000800F000008B5084B002B03D00748084900E000BF07480168002903D0064A002A54
:4002400000D0904708BDC04600000000800F0000F4000020D00000200000000010B562B600F084FC00280ED16524012000F0A8FD00F07CFC002806D1013CE4B2002CF4D1BB
:40028000034B40221A6000F063FC00F09BFAFEE7C000002008B500F0EDFA00F025FB00F08DFB08BD70B5054B0D1C161C0024C9B21C8000F077FB3580201C70BD0C010020E2
:4002C000F0B50A275F4387B002900591161C00252A4CBD4219DA00F0F5FA80B220802388002B0CD00220278800F06AFD00F0EAFA81B221802288BA42F4D8002706E0012095
:40030000013500F05DFDADB2E2E7052700253580208800282FD023883088019301994218059993B233808B4221D201982A1893B2049304998D4209D002994819039000F084
:40034000A7FA039A01351070ADB2F2E772B62088019A831A99B2218062B602984219013A1378172BD4D0052000F02AFDD0E7308000F0BAFA0527381C07B0F0BD0C0100204C
:4003800000B5FEE770B50F490F4A01394B1C14D0506895681468031C1E1AAE4202D040CC40C3F9E7D0681D1C5C1B844202D0002640C3F9E710320139E8E700F0A5FDFFF7B3
:4003C0004DFFFEE701000000D40F000008B500239A00032B02D80D48815800E00C490D4801338150302BF3D1FFF718FE0A490B4B086800221A60002800D108608022D305EE
:40040000186801210843186008BDC046000000008103000000000020C0000020C80000200047000038B5041C013806280BD800F061FD2406260F11080400174820E0174BF7
:4004400009E0174B07E0002000F0ACFC002302E0144B00E0144B5A78187800021043022C04D0032C07D0012C15D104E0040A0302234398B20FE000BA0DE00C4800E00C4858
:40048000C578817842780378180628430D02284311040843E3E738BDD87F0000C57F0000D47F0000D27F0000D67F0000C17F0000C97F000038B50220FFF7B4FF051C032097
:4004C000FFF7B0FF6C1CE1010C180220FFF7AAFF0023421CD201191CA24209D21078451EEDB2FD2D00D80121C318DBB20132F3E705485B420578DCB2AC4201D0062002E0E1
:400500000029FBD0002038BDC07F0000F0B5A34CA544FFF7BFFE62B600250095002603AF962124A849003A1CFF23FFF7C9FE0028F5D139880423062967D924AA1478012CCC
:4005400063D193236B4492221F786A4413783C021C4324AF3A19177953790197E71D9C4603238F4251D89179042317294DD1E3189BB2002B08D0BAAA8949D7187A18177881
:40058000013BC01980B2F3E762464042019F110282B239430823914237D168E0342900D09AE0012D00D0F6E0032C00D0F3E06FA80021802200F0D7FC80266FA988193519A8
:4005C0002639E21EFF39AEB200F0C4FC832E00D0DAE0BC797979009F26020E43002F0AD1391C802204A800F0BEFCFF2004A900F0EDFA01200090301C6FA900F0E7FA0125D4
:40060000002800D1C3E000260A23002168469130012703706A4624AC6B4692330E32277000200F1D197058701180BBB25C4FBAACE418E4192778013BC0199BB280B2002BD0
:40064000F4D14442A0B2BAAF564C7B181F19564C38701F19554C000A38701B19172707311F7089B224A89623FFF71CFE57E724AF79783B79081C31380A2801D90523C4E707
:4006800000F02EFC0611FC8C2FFC32428C507800012D00D07FE0002C7DD1FFF70BFF434243413B7163E0012D75D1012C73D1002B71D13F4A25A8146821889524CF090770EA
:4006C0003A0A97209627FF216C446F446844397022700370042199E7012D5CD1022C5AD96BE7012D57D119E7012D54D19620371943009F424DD86FAA901925A9221C00F0FC
:4007000029FCBEB2002380E7002C44D104AB294A191CA0CAA0C125AF21CB21C708210125231C73E7012D36D1032C34D196226A449521177869440C7838021A02204387180A
:40074000FF01002280210139CC5D1219D2B20029F9D1002B08D1FF2806D1174B174918780C78171A3A1BD2B2504224AB1871002301214BE7FFF79EFE002802D110488024E5
:40078000046000F011FB06E00125002601E0061CB8E7032339E7042337E7C04614FDFFFFA7FDFFFFACFDFFFFADFDFFFFAEFDFFFFD4000020A80F0000D07F0000D17F000081
:4007C000C0000020144810B50368002219680B1C013BBF2B03D01C781219D2B2F8E740680478A21AD3B2A34201D1002902D1002000F0D8FAFFF75EFE084C2168221C4029D8
:4008000001D0002803D000231360FFF77FFE8020206000F0C9FA10BDD4000020C000002008B50B4B10201A680A49024000D10A600B68802B0BD1002201200A60FFF7F2FD4E
:40084000002804D00120FFF7EDFDFFF7E9FD08BD00030B40C000002008B5054B802219681006084318600A2000F088FA08BDC0460000064010B5054C2378002B03D100F056
:40088000BFF801202070FFF7E7FF10BD10010020094B00B51968094B1A6891420AD019684A1C4039481E8141484205490240885C1A6000E0002000BDAC010020240100201A
:4008C00068010020064B074A1B68116800B58B4202D31268981A02E010684133181A00BDAC010020240100200C4A0D4B002130B5106811601D68802464022C431C601D68E3
:40090000084C2C401C60084B084C1D68084B25601970084D08492960106030BDC80F064004030640FFFFFEFF24010020AC010020A9010020C00F0640ED0F0000124910B5F0
:400940000A68531C3F3A541EA241544223400F4A1468A342FBD00C681268944208D10C4C0F2224682240082A02D00A4A10600AE0094C02222260094CC0B2E0540B60084BD0
:4009800019680A431A6010BD200100201C0100200802064040020640800F064028010020880F064038B5041C4518AC4204D02078FFF7C4FF0134F8E738BD00000B4A0023D3
:4009C000116810B513600A4B80201C684002204318601C68074820401860074B07481C68022399430460116010BDC046880F064004020640FFFFFEFF1C0100202001002095
:400A00001D4A1E4B1E4810B51E4900241A60046001221D4B1D480A601D490360072008601C491D4804600A601C4A0A2013601C4B1C6000F0ADF90A20032100F07FF9194974
:400A40000A2000F06FF918481849194A194B04600C60146018491C60184A194B04200860146018481C601849184A194B04600C7014601C6010BDC0460B000002000006408C
:400A8000400006404800064007000080000306400403064044000640100306400002064004020640010E0000880E0640C80E0640480F0640080F0640C80F0640880F064093
:400AC000AC01002024010020A9010020200100201C0100200E4B8422D00418601968802250020843186019680A481960C3239A00094B026000210948094A196009490A4BB2
:400B000010600A4A19600A4910601C20086070470001054024010540380105401027000014010540881300000C010540080105402801054008B500F02CF8044B01211A682E
:400B40000A431A6000F029F808BDC0460000054010B5054C2378002B03D1FFF7BBFF01202070FFF7E7FF10BD18010020024B18680106C80F7047C0460400044000000000EA
:400B80000230800804D0C0460138FDD1C046C0467047EFF3108072B6704780F310887047094A10B513680020141C1A0F11070A2A08D0002806D1F0221206914200D1181C93
:400BC0002368F2E710BDC04608000040F0B5071CABB00124FF2800D995E0002900D192E0002508ACB623D7207F2223706070A5700AA8E5706260802200F0ACF92E1C291CFC
:400C00002A1C0195B31C98002558002D02D05219294301960136202EF4D1002A02D1002968D100E0002100910291384D384E2C60384C34603268002AFCDB2B68FFF7B0FF37
:400C4000041E60D1FFF7A5FF334B05901968B6200491D8226946BFB2087603974A7668460C210A5A294F42832C49294A06A8386011601F1C3368002BFCDB2B68A020010649
:400C80008B4201D0002B2ED1009A002A2CD0002180220AA800F067F9019B029902331D4A08AC980001512C6032603468002CFCDB2B68FFF775FF041E16D107ABB6201870A3
:400CC000D92168460C225970115A10485980144A03600F4B1A6031680029FCDB2B68A0252E06B34200D01C1C049838600598FFF754FF08E0019E01250236B300E058009583
:400D00000290E25091E7201C2BB0F0BD08000040040000400400008008010B40050000800600008000B51F2800D901BE024A800083181868196000BD4000002038B5041C26
:400D40000D1E032D00D901BE1F2C00D901BEFFF720FFA308084A99008B1803221440944019680634A2409143A5400C1C2C431C60FFF713FF38BDC04600E400E01F23184038
:400D8000024A0121814011607047C04600E100E01F231840024A0121814011607047C04680E100E001BE7047034B04491A6890B2084318607047C0460CED00E00400FA05AC
:400DC00010B5041C8022074B1002844205D91868FFF7D6FE04496418F4E758686043FFF7CFFE10BDDC0000200080FFFF08B5034B197A4843FFF7C4FE08BDC046DC00002061
:400E0000264B10B51868002800D0804724490A6852071DD5234C23681A0716D0224B234A186811684B1C40394C1EA1414C42204923400C68A34203D11E4B20221A70E9E787
:400E40001D49C0B2C8541360E4E71C49042008601B4A1468A20720D51A4B0F2118680140082917D0184A194B1468186884420CD01C68621C3F3C601E8441614214480A40F5
:400E8000845C14490C601A60E6E7134C022122688A432260114B0220186010BD14010020CC0F06400803064040030640AC01002024010020A901002068010020C00F06407A
:400EC0008C0F064008020640200100201C0100202801002040020640880F0640800F064002B4714649084900095649008E4402BC7047C04602B4714649084900095C49000F
:400F00008E4402BC7047C04670B50E4B0E4D0024E81A85101E1CAC4204D0A100725890470134F8E700F044F80849094A0E1C541AA5100024AC4204D0A300F0588047013494
:400F4000F8E770BDBC0F0000BC0F0000BC0F0000C40F000010B50023934203D0CC5CC4540133F9E710BD00B58218031C934202D019700133FAE700BD081000006300000095
:400F80000000000001330F4003410F4004430F4002600F40E61062048E04D84018808C40C608E608020111019311160411140101F8B5C046F8BC08BC9E46704725020000C7
:400FC000CD030000F8B5C046F8BC08BC9E467047FD010000E80F0000D000002020000000C00000000000000000000000780F00007C0F00000000E02EC05D00001800000041
:4010000000366E010000000000000000000000000000000000000000000000000000000000000000000000000000000000000000000000000000000000000000000000000B
:401040000000000000000000000000000000000000000000000000000000000000000000000000000000000000000000000000000000000000000000000000000000000070
:401080000010002091100000A5150000A515000080B500AF024B83F3088800F087FAC0460010002080B584B000AF021CFB1D1A70204A3B1C0B3312781A701F4A3B1C0A3325
:4010C00012781A700423013BFB6018E01B4B1868391C0B31FA68131C5B009B18C3185B780B70164B1868391C0A31FA68131C5B009B18C3189B780B70FB68013BFB60FB6811
:40110000002B0ADB0D4B1968FA68131C5B009B185B5CFA1D12789A42D8D9094B3A1C0B3212781A60074B3A1C0A3212781A60BD4604B080BDCCF1FF0FCDF1FF0FE4000020E0
:401140001CFF0B4020FF0B4080B500AF1F4B1F4A12688021C9020A431A601820FFF7A2FF1B4B19221A60052000F03EFC194B1A4A1278D2B21A60052000F04AFC134B134A9C
:401180001168164A0A401A60154B164A1A60164B10221A60154B30221A60154B20221A60144B20221A60144B20221A60134B802212061A60124B134A1A60134B134A1A60D2
:4011C000134B144A1A60BD4680BDC04600010B402CFF0B4028FF0B40E5F1FF0FFFFFFBFF04010B4006000080080202400C02024020020240240202402802024008010B4065
:4012000000000240100000804000024017000080800002402200008080B582B000AF72B6FB1D00221A7023E0FB1D1A78131C5B009B185B003D4A9B183B603B681A7859783D
:4012400009020A43997809040A43DB781B0613431A1C3B6819795B791B020B439BB2101C191C00F029FAFB1D1A78FB1D01321A70FB1D1B78012BD7D92D4A2E4B101C191C1F
:4012800000F02AFA2C4B2D4A1A602D4B99221A602C4B2D4A1A602D4B802252011A602C4B02221A602B4B2C4A1A602C4B02221A602B4B02221A602B4B31221A602A4B022236
:4012C0001A602A4B992212041A60294B294A1A60294B802292041A60284B992212041A60274B19221A60274B264A1278D2B202210A43D2B21A70244B234A1278D2B20C21C3
:401300008A43D2B204210A43D2B21A701D4B1D4A1278D2B216210A43D2B21A70FFF714FF00F01AFABD4602B080BDC046302B00003C2B0000482B00000C00014099EE00005F
:401340001000014008010440360C1800080204400003044008030440B10D00001803044000040440080404401804044010500F4020500F400400990024500F4030500F40DF
:40138000A001054000700F4001700F4010B5064C2378002B07D1054B002B02D0044800E000BF0123237010BDF800002000000000282B000008B5084B002B03D0074808493E
:4013C00000E000BF07480368002B03D0064B002B00D0984708BDC04600000000282B0000FC000020D00000200000000090B583B000AFBB1D00221A7062B600F0EBFD01F0B5
:4014000009F900F097FF00F0C1F900F061FA00F013FB00F0FFFF01F061F900F03FFE00F0C1FA021C7B1D1A707B1D1B78002B13D0FB1D00221A700AE0FB1D1B784E4A791D20
:401440000978D154FB1D1A78FB1D01321A70FB1D1B78032BF0D9E2E7FB1D00221A7039E0FB1D1A78454B5200D35A1AB2444B9A4205DCFB1D1B78434A0021D15425E0FB1D93
:401480001A783E4B5200D35A1AB2FA23DB009A4205DDFB1D1B783B4AFF21D15415E0FB1D1C78FB1D1A78354B5200D35A1BB236495A18131C1B029B1A181CFA23990001F0B7
:4014C000A3FA031CDAB22F4B1A55FB1D1A78FB1D01321A70FB1D1B78072BC1D92B4B1A88FA239B009A4230D9BB1D1B785A1C284B134004D5013B04225242134301331A1CDA
:40150000BB1D1A70FB1D00221A7009E0FB1D1B78204A0021D154FB1D1A78FB1D01321A70FB1D1B78032BF1D91B4B01221A70BB1D1B78BA1D12781049895C164AD154174B1B
:4015400000221A80114B00221A80144B1A88144B9A4209D1104B1B78012B05D10E4B00221A700E4B00221A80BB1D1B78054A1178014AD15453E7C046D8000020400100202B
:40158000E70300001801002018FCFFFF5C01002003000080D4000020140100205A010020DC05000080B500AFFEE7C04680B586B000AF224B7B61224B3B61204B7B6135E0DA
:4015C0003B691B68FB603B695B68BB603B699B683B6000237B600CE0FB681A68BB681A60BB680433BB60FB680433FB607B6804337B607A683B689A42EED13B69DB683B6038
:4016000000237B6008E0BB6800221A60BB680433BB607B6804337B607A683B689A42F2D13B6910333B617B69013B7B617B69002BC6D101F04BFAFFF7D9FEFEE70100000069
:40164000C02B000080B582B000AF00237B600FE07B68032B04D8134B7A689200D35800E0114B124A796889008B507B6801337B607B682F2BECD9FFF7CFFD0D4B00221A600B
:401680000C4B1B68002B02D10A4B00221A608023DB058022D205126801210A431A60BD4602B080BD80100000A515000000000020C8000020C000002080B582B000AF7860F0
:4016C00039607A683B68101C00211A1C01F024FABD4602B080BDC04680B586B000AF7860396000233B6100237B612EE07B699B007A68D3181B68BB603B1C0F33BA681A70BC
:40170000BB68FF229343BB6017E03B695B003A68D3181B781A1CBB68D3183A69520039688A1852781A703B6901333B613B1C0F331A783B1C0F33013A1A703B1C0F331B7865
:40174000002BE2D17B6901337B617B69022BCDD9BD4606B080BDC04680B500AFBD4680BD80B500AF00F028F8BD4680BD80B500AF054B054A1268802109060A431A6000F028
:4017800017F8BD4680BDC0460000074080B500AF064B1B78002B04D1FFF7E2FF034B01221A70FFF7E3FFBD4680BDC0462001002080B500AFBD4680BD80B500AF174B184AC8
:4017C0001A60184B00221A60174B01221A60174B174A1A60174B07221A60174B00221A60164B01221A60164B114A1A60154B00221A60154B00221A60144B00221A60144BAB
:4018000000221A60134B00221A60134B04221A60124B00221A60BD4680BDC046000007400B0000024000074048000740000307400700008004030740100307404400074067
:401840000002074004020740880E0740C80E0740480F0740080F0740C80F0740880F074080B582B000AF00237B6000F0F1FF031C002B03D000F0DCFF031C7B60084B1A6835
:40188000D8239B00134005D000237B60044BD82292001A607B68181CBD4602B080BDC046C00F074080B500AF00F028F8BD4680BD80B500AF054B054A1268802109060A43C4
:4018C0001A6000F017F8BD4680BDC0460000064080B500AF064B1B78002B04D1FFF7E2FF034B01221A70FFF7E3FFBD4680BDC0462801002080B500AFBD4680BD80B500AFDA
:40190000174B184A1A60184B00221A60174B01221A60174B174A1A60174B07221A60174B00221A60164B01221A60164B114A1A60154B00221A60154B00221A60144B00227E
:401940001A60144B00221A60134B00221A60134B00221A60124B00221A60BD4680BDC046000006400B000002400006404800064000030640070000800403064010030640E2
:40198000440006400002064004020640880E0640C80E0640480F0640080F0640C80F0640880F064080B582B000AF00237B6000F06FFF031C002B03D000F05AFF031C7B604B
:4019C000084B1A68D8239B00134005D000237B60044BD82292001A607B68181CBD4602B080BDC046C00F06400230800804D0C0460138FDD1C046C046C0467047EFF3108007
:401A000072B6704780F310887047C046C046C04680B582B000AF021CBB1D1A80BB1D1B88044A12785343181CFFF7DEFFBD4602B080BDC046F000002080B500AF00F082FA05
:401A4000054B181C00F042FA032000F04BFA00F06FFABD4680BDC0465D1A000090B583B000AFFFF7FDFE031C3B6000F075FAD54BD54A1A60D54B1B685A1CD44B1A603B6809
:401A8000FE2B13D1D14B1A68D14B1A60D14B01221A70D14B00221A70D04B00221A70D04B00221A70CF4B00221A70F3E13B68012B19D1C84B1B785BB2012B14D1C64B1B780B
:401AC000002B10D1C24B1B68DA1CC04B1B689A4209D1C14B01221A70C04B00221A70C04B00221A70D6E13B68012B1BD1B94B1B785BB2012B16D1B84B1B785BB2012B11D10F
:401B0000B64B1B78002B0DD1B14B1B681A1DAF4B1B689A4206D1B14B01221A70B04B00221A70B7E13B68232B1DD1AA4B1B785BB2012B18D1A84B1B785BB2012B13D1A74B1C
:401B40001B785BB2012B0ED1A54B1B78002B0AD19F4B1B685A1D9D4B1B689A4203D1A04B01221A7096E19B4B1B785BB2012B00D090E1994B1B785BB2012B00D08AE1974B63
:401B80001B785BB2012B00D084E1954B1B785BB2012B00D07EE18E4B1B681A1C0A328B4B1B689A4200DD75E18E4B1B78DBB20133DAB28C4B1A708B4B1B785BB2102B00D96F
:401BC00068E19A00884BD3181B689F463B689AB2864B1A805EE1854B1B889AB23B689BB21B029BB213439BB29AB2804B1A80312000F05EFE7D4B1B881BB21B129BB2DBB2FA
:401C0000181C00F055FE794B1B88DBB2181C00F04FFE3FE13B689AB2744B5A803AE1734B5B889AB23B689BB21B029BB213439BB29AB26E4B5A80322000F03AFE6B4B5B8829
:401C40001BB21B129BB2DBB2181C00F031FE674B5B88DBB2181C00F02BFE1BE13B689AB2624B9A8016E1614B9B889AB23B689BB21B029BB213439BB29AB25C4B9A803320AD
:401C800000F016FE594B9B881BB21B129BB2DBB2181C00F00DFE554B9B88DBB2181C00F007FEF7E03B689AB2504BDA80F2E04F4BDB889AB23B689BB21B029BB213439BB20A
:401CC0009AB24A4BDA80342000F0F2FD474BDB881BB21B129BB2DBB2181C00F0E9FD434BDB88DBB2181C00F0E3FDD3E03B689AB23E4B1A81CEE03D4B1B899AB23B689BB245
:401D00001B029BB213439BB29AB2384B1A81352000F0CEFD354B1B891BB21B129BB2DBB2181C00F0C5FD314B1B89DBB2181C00F0BFFDAFE03B689AB22C4B5A81AAE02B4BE1
:401D40005B899AB23B689BB21B029BB213439BB29AB2264B5A81362000F0AAFD234B5B891BB21B129BB2DBB2181C00F0A1FD1F4B5B89DBB2181C00F09BFD8BE03B689AB2D8
:401D80001A4B9A8186E0194B9B899AB23B689BB21B029BB213439BB29AB2144B9A81372000F086FD114B9B891BB21B129BB2DBB2181C00F07DFD0D4B9B89DBB2181C00F0BD
:401DC00077FD67E0C00F0740ED0F00003401002038010020300100203101002032010020330100203C010020582B0000400100203B689AB22A4BDA814CE0294BDB899AB2CE
:401E00003B689BB21B029BB213439BB29AB2244BDA81382000F04CFD214BDB891BB21B129BB2DBB2181C00F043FD1D4BDB89DBB2181C00F03DFD1B4B00221A701A4B0022A6
:401E40001A701A4B00221A70194B00221A70194B00221A70184B00221A60FB1D00221A7013E0FB1D1C780E4BDB891BB2134A9B18181C052100F0C8FD031CDAB2104B1A5527
:401E8000FB1D1A78FB1D01321A70FB1D1B78032BE7D9C0460B4B0C4A1A60BD4603B090BD40010020300100203101002032010020330100203C010020340100202CFCFFFF58
:401EC000D8000020C00F0740ED0F000080B582B000AF7860024B7A68DA66BD4602B080BD0000002090B585B000AF021CFB1D1A701E23FB603C1C0B34FFF780FD031C237028
:401F00000A4B0A4A126892009108FA1D1078FA68041C9440221C0A431A603B1C0B331B78181CFFF76FFDBD4605B090BD08E400E080B500AF024B802212011A60BD4680BD2A
:401F400000E100E080B500AF024B802212011A60BD4680BD80E100E080B500AF024B802212011A60BD4680BD80E200E080B500AF084B802292041A60074B0C221A600120D9
:401F800000F074F80A2000F045F8002000F034F8BD4680BD000105402401054090B583B000AFFC1DFFF72AFD031C2370084B084A126801210A431A60FB1D1B78181CFFF756
:401FC00021FD0120182100F033F8BD4603B090BD0000054080B500AF064B1B78002B04D1FFF7C4FF034B01221A70FFF7D7FFBD4680BDC0465001002080B582B000AF786019
:40200000034B7A681204120C1A60BD4602B080BD0801054080B582B000AF7860034B7A681204120C1A60BD4602B080BD1401054090B585B000AF786039603C1C0F34FFF73F
:40204000DDFC031C2370084B3A687968081C9040021C1A603B1C0F331B78181CFFF7D2FCBD4605B090BDC0460800054080B582B000AF7860024B7A681A60BD4602B080BD6E
:402080003801054080B582B000AF7860024B7A681A60BD4602B080BD3001054080B500AF00F0FCF8054B181C00F0B8F8032000F0C3F800F0E9F8BD4680BDC046C1200000F1
:4020C00080B500AF00F0F4F8012000F0FBFA494B1B78002B00D064E0474BDA78474BDA70454B9A78454B9A70454B1B88002B05D1424B00225A70414B00221A70404B1A88A6
:4021000096239B009A4203D13B4B5A783B4B5A703B4B1B881A1C3B4B1B88962080001B189A4202D1354B00225A70354B1A88FF239B009A4203D1304B1A78304B1A70304BCB
:402140001B881A1C304B1B88FF2189005B189A4202D12A4B00221A70294B1B881A1C2A4B1B888720C0001B189A4203D1224B1A78224B1A70224B1B881A1C234B1B88FF2061
:4021800080001918214B1B88C9181F4B1B88CB189A420FD1194B00221A70194B00221A8008E0174B1A889623DB009A4202D1144B00221A80164B9B78002B0AD1144B5B78AC
:4021C000FF2B06D1134B1B8801339AB2114B1A8002E0104B00221A80094B1B8801339AB2074B1A800C4B1B8801339AB20A4B1A80BD4680BD14010020D8000020D400002041
:4022000058010020E0000020DC000020DE000020180100205C0100205A01002080B582B000AF7860034A84237968D150BD4602B080BDC0460000002090B585B000AF021CB7
:40224000FB1D1A700E23FB603C1C0B34FFF7D6FB031C23700A4B0A4A11680A4A1140FA1D1078FA68041C9440221C0A431A603B1C0B331B78181CFFF7C5FBBD4605B090BD48
:4022800010E400E0FF3FFFFF80B500AF024B802292021A60BD4680BD00E100E080B500AF024B802292021A60BD4680BD80E100E080B500AF024B802292021A60BD4680BDA9
:4022C00080E200E080B500AF094B802292041A60084B0D221A60022000F084F8064B181C00F054F8002000F037F8BD4680BDC04680010540A4010540FFFF000090B583B0BC
:4023000000AFFC1DFFF77AFB031C2370084B084A126804210A431A60FB1D1B78181CFFF771FB0420182100F03FF8BD4603B090BD0000054080B500AF064B1B78002B04D1D8
:40234000FFF7C0FF034B01221A70FFF7D7FFBD4680BDC0466001002080B582B000AF7860034B7A681204120C1A60BD4602B080BD8801054080B500AF034B1B681B041B0C93
:40238000181CBD4680BDC0468801054080B582B000AF7860034B7A681204120C1A60BD4602B080BD9401054090B585B000AF786039603C1C0F34FFF721FB031C2370084BF1
:4023C0003A687968081C9040021C1A603B1C0F331B78181CFFF716FBBD4605B090BDC0460800054080B582B000AF7860024B7A681A60BD4602B080BDB801054080B582B021
:4024000000AF7860024B7A681A60BD4602B080BDB001054080B500AF00F0B2F8054B181C00F06EF8032000F079F800F09FF8BD4680BDC0463924000080B500AF00F0AAF808
:402440000120FFF71FFE2C4B1B78002B06D12B4BDB78002B02D0FF2000F040FA264B1B78002B06D1254B9B78002B02D0FF2000F059FA214B1B78002B06D1204B1B78002BFB
:4024800002D0FF2000F074FA1B4B1B78002B06D11A4B5B78002B02D0FF2000F08FFA174BDA78154B1B789A4202D1002000F016FA124B9A78104B1B789A4202D1002000F073
:4024C00031FA0E4B1A780C4B1B789A4202D1002000F04EFA094B5A78074B1B789A4202D1002000F06BFA044B1B780133DAB2024B1A70BD4680BDC04661010020D400002071
:4025000080B582B000AF7860034A80237968D150BD4602B080BDC0460000002090B585B000AF021CFB1D1A700623FB603C1C0B34FFF764FA031C23700B4B0B4A1268C02193
:40254000101C8843011CFA1D1078FA68041C9440221C0A431A603B1C0B331B78181CFFF751FABD4605B090BD10E400E080B500AF024B802252021A60BD4680BD00E100E035
:4025800080B500AF024B802252021A60BD4680BD80E100E080B500AF024B802252021A60BD4680BD80E200E080B500AF094B802292041A60084B0C221A60012000F076F872
:4025C000FA239B00181C00F045F8002000F034F8BD4680BD400105406401054090B583B000AFFC1DFFF70AFA031C2370084B084A126802210A431A60FB1D1B78181CFFF74C
:4026000001FA0220182100F033F8BD4603B090BD0000054080B500AF064B1B78002B04D1FFF7C2FF034B01221A70FFF7D7FFBD4680BDC0466201002080B582B000AF7860E4
:40264000034B7A681204120C1A60BD4602B080BD4801054080B582B000AF7860034B7A681204120C1A60BD4602B080BD5401054090B585B000AF786039603C1C0F34FFF779
:40268000BDF9031C2370084B3A687968081C9040021C1A603B1C0F331B78181CFFF7B2F9BD4605B090BDC0460800054080B582B000AF7860024B7A681A60BD4602B080BD6E
:4026C0007801054080B582B000AF7860024B7A681A60BD4602B080BD7001054080B500AF00F092F8054B181C00F04EF8032000F059F800F07FF8BD4680BDC046012700008C
:4027000080B582B000AF00F089F80220FFF776FEFFF730FE031C7B600020FFF71DFE7A68FA231B019A4206DD144B00221A70144B01221A701EE07A68E1239B009A4216DDF8
:402740000F4B1B78012B12D10C4B1B78072B0ED80A4B1B781A1C7B6899B20A4B5200D152064B1B780133DAB2044B1A7002E0044B00221A70BD4602B080BDC046630100206F
:40278000640100204001002080B582B000AF7860034A88237968D150BD4602B080BDC0460000002090B585B000AF021CFB1D1A701623FB603C1C0B34FFF720F9031C23705E
:4027C0000A4B0A4A11680A4A1140FA1D1078FA68041C9440221C0A431A603B1C0B331B78181CFFF70FF9BD4605B090BD10E400E0FFFF3FFF80B500AF024B8022D2021A6088
:40280000BD4680BD00E100E080B500AF024B8022D2021A60BD4680BD80E100E080B500AF024B8022D2021A60BD4680BD80E200E080B582B000AF00237B60044B1B687B6091
:402840007B68181CBD4602B080BDC0464003074080B582B000AF054B1A680F2313407B607B68181CBD4602B080BDC0460803074080B582B000AF00237B60044B1B687B6055
:402880007B68181CBD4602B080BDC0464003064080B582B000AF054B1A680F2313407B607B68181CBD4602B080BDC0460803064080B582B000AF7860C046064B1A680F23DF
:4028C0001340082BF9D0044B7A681A60BD4602B080BDC046080206404002064080B584B000AF021CFB1D1A700D4B1B68DAB23B1C0F3301218A431A70FB1D1A78012313409C
:40290000D9B23B1C0F333A1C0F3212780A431A70034B3A1C0F3212781A60BD4604B080BD0001044080B584B000AF021CFB1D1A700E4B1B68DAB23B1C0F3302218A431A7006
:40294000FB1D1B78DB18DAB202231340D9B23B1C0F333A1C0F3212780A431A70034B3A1C0F3212781A60BD4604B080BD0001044080B584B000AF021CFB1D1A700E4B1B68C3
:40298000DAB23B1C0F3340218A431A70FB1D1B789B01DAB240231340D9B23B1C0F333A1C0F3212780A431A70034B3A1C0F3212781A60BD4604B080BD0001044080B584B00A
:4029C00000AF021CFB1D1A700E4B1B68DAB23B1C0F3308218A431A70FB1D1B78DB00DAB208231340D9B23B1C0F333A1C0F3212780A431A70034B3A1C0F3212781A60BD464F
:402A000004B080BD00010440002941D010B4041C4C40A44601230022002900D54942002800D5404288422CD301242407A14204D2814202D209011B01F8E7E400A14204D273
:402A4000814202D249005B00F8E7884201D3401A1A434C08A04202D3001B5C0822438C08A04202D3001B9C082243CC08A04202D3001BDC082243002803D01B0901D0090998
:402A8000E3E7101C6446002C00D5404210BC7047002806D003DB0020C043400801E08020000607B4024802A14018029003BDC046190000000029EBD003B5FFF7A7FF0EBC2F
:402AC0004243891A1847C0467047C04670B50E4B0E4D0024ED1AAD101E1CAC4204D0A300F35898470134F8E700F058F8084B094D0024ED1AAD101E1CAC4204D0A300F35833
:402B000098470134F8E770BDA82B0000A82B0000A82B0000B02B0000031C8218934202D019700133FAE77047000000000400000000300F40000400400F40000402420F40BF
:402B400003430F4002600F400802C2087C029802DE01020111010000941E0000CC1B0000D61B0000141C00001E1C00005C1C0000661C0000A41C0000AE1C0000EC1C0000AF
:402B8000F61C0000341D00003E1D00007C1D0000861D0000F01D0000FA1D0000F8B5C046F8BC08BC9E467047B513000045160000F8B5C046F8BC08BC9E4670478D130000A8
:402BC000D02B0000D000002028000000700000000000000010101010101010103C003C003C000000C0F1FF0F00366E01C05D0000180000000000E02E000000000000000077
:402C00000000000000000000000000000000000000000000000000000000000000000000000000000000000000000000000000000000000000000000000000000000000094
:402C40000000000000000000000000000000000000000000000000000000000000000000000000000000000000000000000000000000000000000000000000000000000054
:402C80000000000000000000000000000000000000000000000000000000000000000000000000000000000000000000000000000000000000000000000000000000000014
:402CC00000000000000000000000000000000000000000000000000000000000000000000000000000000000000000000000000000000000000000000000000000000000D4
:407FC000239110000020000000801B000000000000000100000000000000000000000000000000000000000000000000000000000000000000000000000000000000000001
:0200000490303A
:020000006C1B77
:0200000490402A
:20000000FFFFFFFF00000000000000000000000000000000000000000000000000000000E4
:0200000490501A
:0C000000000204161193110004247DAED0
:0200000490600A
:0100000001FE
:00000001FF